{
  "_format": "hh-sol-artifact-1",
  "contractName": "PhirottoFactory",
  "sourceName": "contracts/PhirottoFactory.sol",
  "abi": [
    {
      "inputs": [],
      "stateMutability": "nonpayable",
      "type": "constructor"
    },
    {
      "inputs": [
        {
          "internalType": "address",
          "name": "owner",
          "type": "address"
        }
      ],
      "name": "OwnableInvalidOwner",
      "type": "error"
    },
    {
      "inputs": [
        {
          "internalType": "address",
          "name": "account",
          "type": "address"
        }
      ],
      "name": "OwnableUnauthorizedAccount",
      "type": "error"
    },
    {
      "anonymous": false,
      "inputs": [
        {
          "indexed": true,
          "internalType": "address",
          "name": "previousOwner",
          "type": "address"
        },
        {
          "indexed": true,
          "internalType": "address",
          "name": "newOwner",
          "type": "address"
        }
      ],
      "name": "OwnershipTransferred",
      "type": "event"
    },
    {
      "inputs": [
        {
          "internalType": "string",
          "name": "_vaultName",
          "type": "string"
        },
        {
          "internalType": "address",
          "name": "whitelist",
          "type": "address"
        },
        {
          "internalType": "address",
          "name": "_vaultAdmin",
          "type": "address"
        },
        {
          "internalType": "uint256",
          "name": "requestedAmount",
          "type": "uint256"
        }
      ],
      "name": "deployVault",
      "outputs": [
        {
          "internalType": "address",
          "name": "vault",
          "type": "address"
        }
      ],
      "stateMutability": "nonpayable",
      "type": "function"
    },
    {
      "inputs": [
        {
          "internalType": "address",
          "name": "user",
          "type": "address"
        }
      ],
      "name": "isAdmin",
      "outputs": [
        {
          "internalType": "bool",
          "name": "",
          "type": "bool"
        }
      ],
      "stateMutability": "view",
      "type": "function"
    },
    {
      "inputs": [],
      "name": "owner",
      "outputs": [
        {
          "internalType": "address",
          "name": "",
          "type": "address"
        }
      ],
      "stateMutability": "view",
      "type": "function"
    },
    {
      "inputs": [],
      "name": "renounceOwnership",
      "outputs": [],
      "stateMutability": "nonpayable",
      "type": "function"
    },
    {
      "inputs": [
        {
          "internalType": "address",
          "name": "user",
          "type": "address"
        }
      ],
      "name": "setAdmin",
      "outputs": [],
      "stateMutability": "nonpayable",
      "type": "function"
    },
    {
      "inputs": [
        {
          "internalType": "address",
          "name": "newOwner",
          "type": "address"
        }
      ],
      "name": "transferOwnership",
      "outputs": [],
      "stateMutability": "nonpayable",
      "type": "function"
    },
    {
      "inputs": [
        {
          "internalType": "address",
          "name": "user",
          "type": "address"
        }
      ],
      "name": "unsetAdmin",
      "outputs": [],
      "stateMutability": "nonpayable",
      "type": "function"
    },
    {
      "inputs": [
        {
          "internalType": "string",
          "name": "",
          "type": "string"
        }
      ],
      "name": "vaultAddresses",
      "outputs": [
        {
          "internalType": "address",
          "name": "",
          "type": "address"
        }
      ],
      "stateMutability": "view",
      "type": "function"
    },
    {
      "inputs": [
        {
          "internalType": "address payable",
          "name": "_to",
          "type": "address"
        },
        {
          "internalType": "uint256",
          "name": "_amount",
          "type": "uint256"
        }
      ],
      "name": "withdrawEth",
      "outputs": [],
      "stateMutability": "nonpayable",
      "type": "function"
    },
    {
      "inputs": [
        {
          "internalType": "contract IERC20",
          "name": "_tokenToWithdraw",
          "type": "address"
        },
        {
          "internalType": "address",
          "name": "_to",
          "type": "address"
        },
        {
          "internalType": "uint256",
          "name": "_amount",
          "type": "uint256"
        }
      ],
      "name": "withdrawToken",
      "outputs": [],
      "stateMutability": "nonpayable",
      "type": "function"
    }
  ],
  "bytecode": "0x608060405234801561001057600080fd5b5033808061003857604051631e4fbdf760e01b81526000600482015260240160405180910390fd5b61004181610048565b5050610098565b600080546001600160a01b038381166001600160a01b0319831681178455604051919092169283917f8be0079c531659141344cd1fd0a4f28419497f9722a3daafe3b4186f6b6457e09190a35050565b611949806100a76000396000f3fe60806040523480156200001157600080fd5b5060043610620000ab5760003560e01c8063704b6c02116200006e578063704b6c02146200018b578063715018a614620001a25780638da5cb5b14620001ac57806399e87ed314620001be578063f2fde38b14620001d557600080fd5b806301e3366714620000b05780631b9a91a414620000c957806324d7806c14620000e057806348a01f5714620001245780634d253b501462000174575b600080fd5b620000c7620000c136600462000581565b620001ec565b005b620000c7620000da366004620005c7565b620002b4565b6200010f620000f1366004620005f6565b6001600160a01b031660009081526001602052604090205460ff1690565b60405190151581526020015b60405180910390f35b6200015b62000135366004620006c8565b80516020818301810180516002825292820191909301209152546001600160a01b031681565b6040516001600160a01b0390911681526020016200011b565b620000c762000185366004620005f6565b62000399565b620000c76200019c366004620005f6565b620003c4565b620000c7620003f5565b6000546001600160a01b03166200015b565b6200015b620001cf36600462000709565b6200040d565b620000c7620001e6366004620005f6565b6200049a565b3360009081526001602052604090205460ff1680620002255750336200021a6000546001600160a01b031690565b6001600160a01b0316145b6200022f57600080fd5b60405163a9059cbb60e01b81526001600160a01b0383811660048301526024820183905284169063a9059cbb906044016020604051808303816000875af11580156200027f573d6000803e3d6000fd5b505050506040513d601f19601f82011682018060405250810190620002a591906200077b565b620002af57600080fd5b505050565b3360009081526001602052604090205460ff1680620002ed575033620002e26000546001600160a01b031690565b6001600160a01b0316145b620002f757600080fd5b6000826001600160a01b03168260405160006040518083038185875af1925050503d806000811462000346576040519150601f19603f3d011682016040523d82523d6000602084013e6200034b565b606091505b5050905080620002af5760405162461bcd60e51b81526020600482015260146024820152732330b4b632b2103a379039b2b7321022ba3432b960611b60448201526064015b60405180910390fd5b620003a3620004de565b6001600160a01b03166000908152600160205260409020805460ff19169055565b620003ce620004de565b6001600160a01b03166000908152600160208190526040909120805460ff19169091179055565b620003ff620004de565b6200040b60006200050d565b565b60008482858560405162000421906200055d565b620004309493929190620007c5565b604051809103906000f0801580156200044d573d6000803e3d6000fd5b5090508060028660405162000463919062000818565b90815260405190819003602001902080546001600160a01b03929092166001600160a01b0319909216919091179055949350505050565b620004a4620004de565b6001600160a01b038116620004d057604051631e4fbdf760e01b81526000600482015260240162000390565b620004db816200050d565b50565b6000546001600160a01b031633146200040b5760405163118cdaa760e01b815233600482015260240162000390565b600080546001600160a01b038381166001600160a01b0319831681178455604051919092169283917f8be0079c531659141344cd1fd0a4f28419497f9722a3daafe3b4186f6b6457e09190a35050565b6110dd806200083783390190565b6001600160a01b0381168114620004db57600080fd5b6000806000606084860312156200059757600080fd5b8335620005a4816200056b565b92506020840135620005b6816200056b565b929592945050506040919091013590565b60008060408385031215620005db57600080fd5b8235620005e8816200056b565b946020939093013593505050565b6000602082840312156200060957600080fd5b813562000616816200056b565b9392505050565b634e487b7160e01b600052604160045260246000fd5b600082601f8301126200064557600080fd5b813567ffffffffffffffff808211156200066357620006636200061d565b604051601f8301601f19908116603f011681019082821181831017156200068e576200068e6200061d565b81604052838152866020858801011115620006a857600080fd5b836020870160208301376000602085830101528094505050505092915050565b600060208284031215620006db57600080fd5b813567ffffffffffffffff811115620006f357600080fd5b620007018482850162000633565b949350505050565b600080600080608085870312156200072057600080fd5b843567ffffffffffffffff8111156200073857600080fd5b620007468782880162000633565b945050602085013562000759816200056b565b925060408501356200076b816200056b565b9396929550929360600135925050565b6000602082840312156200078e57600080fd5b815180151581146200061657600080fd5b60005b83811015620007bc578181015183820152602001620007a2565b50506000910152565b6080815260008551806080840152620007e68160a0850160208a016200079f565b6020830195909552506001600160a01b0392831660408201529116606082015260a0601f909201601f19160101919050565b600082516200082c8184602087016200079f565b919091019291505056fe6080604052600480546001600160a01b031916730994206dfe8de6ec6920ff4d779b0d950605fb531790553480156200003757600080fd5b50604051620010dd380380620010dd8339810160408190526200005a9162000172565b80806001600160a01b0381166200008b57604051631e4fbdf760e01b81526000600482015260240160405180910390fd5b6200009681620000ef565b505060016002556003620000ab858262000307565b5060058390556001600160a01b038216620000c557600080fd5b50600780546001600160a01b0319166001600160a01b039290921691909117905550620003d39050565b600080546001600160a01b038381166001600160a01b0319831681178455604051919092169283917f8be0079c531659141344cd1fd0a4f28419497f9722a3daafe3b4186f6b6457e09190a35050565b634e487b7160e01b600052604160045260246000fd5b80516001600160a01b03811681146200016d57600080fd5b919050565b600080600080608085870312156200018957600080fd5b84516001600160401b0380821115620001a157600080fd5b818701915087601f830112620001b657600080fd5b815181811115620001cb57620001cb6200013f565b604051601f8201601f19908116603f01168101908382118183101715620001f657620001f66200013f565b81604052828152602093508a848487010111156200021357600080fd5b600091505b8282101562000237578482018401518183018501529083019062000218565b600084848301015280985050505080870151945050506200025b6040860162000155565b91506200026b6060860162000155565b905092959194509250565b600181811c908216806200028b57607f821691505b602082108103620002ac57634e487b7160e01b600052602260045260246000fd5b50919050565b601f82111562000302576000816000526020600020601f850160051c81016020861015620002dd5750805b601f850160051c820191505b81811015620002fe57828155600101620002e9565b5050505b505050565b81516001600160401b038111156200032357620003236200013f565b6200033b8162000334845462000276565b84620002b2565b602080601f8311600181146200037357600084156200035a5750858301515b600019600386901b1c1916600185901b178555620002fe565b600085815260208120601f198616915b82811015620003a45788860151825594840194600190910190840162000383565b5085821015620003c35787850151600019600388901b60f8161c191681555b5050505050600190811b01905550565b610cfa80620003e36000396000f3fe608060405234801561001057600080fd5b50600436106100f55760003560e01c80634d253b50116100975780638da5cb5b116100665780638da5cb5b1461024057806393e59dc114610251578063b3989d9514610264578063f2fde38b1461027757600080fd5b80634d253b50146101ff578063704b6c0214610212578063715018a614610225578063759dc60c1461022d57600080fd5b80631b9a91a4116100d35780631b9a91a41461017d5780631fcad95f14610190578063201c9a2b1461019857806324d7806c146101c357600080fd5b806301e33667146100fa57806306fdde031461010f57806309e69ede1461012d575b600080fd5b61010d610108366004610a29565b61028a565b005b610117610379565b6040516101249190610a6a565b60405180910390f35b61016061013b366004610ab9565b60086020526000908152604090208054600182015460029092015460ff909116919083565b604080519315158452602084019290925290820152606001610124565b61010d61018b366004610add565b610407565b61010d6104e6565b6004546101ab906001600160a01b031681565b6040516001600160a01b039091168152602001610124565b6101ef6101d1366004610ab9565b6001600160a01b031660009081526001602052604090205460ff1690565b6040519015158152602001610124565b61010d61020d366004610ab9565b6106f2565b61010d610220366004610ab9565b61071b565b61010d61074a565b61010d61023b366004610b09565b61075c565b6000546001600160a01b03166101ab565b6007546101ab906001600160a01b031681565b61010d610272366004610ab9565b610875565b61010d610285366004610ab9565b6108d7565b3360009081526001602052604090205460ff16806102c15750336102b66000546001600160a01b031690565b6001600160a01b0316145b6102ca57600080fd5b60405163a9059cbb60e01b81526001600160a01b0383811660048301526024820183905284169063a9059cbb906044016020604051808303816000875af1158015610319573d6000803e3d6000fd5b505050506040513d601f19601f8201168201806040525081019061033d9190610b92565b61034657600080fd5b6004546001600160a01b039081169084160361037457806006600082825461036e9190610bca565b90915550505b505050565b6003805461038690610bdd565b80601f01602080910402602001604051908101604052809291908181526020018280546103b290610bdd565b80156103ff5780601f106103d4576101008083540402835291602001916103ff565b820191906000526020600020905b8154815290600101906020018083116103e257829003601f168201915b505050505081565b3360009081526001602052604090205460ff168061043e5750336104336000546001600160a01b031690565b6001600160a01b0316145b61044757600080fd5b6000826001600160a01b03168260405160006040518083038185875af1925050503d8060008114610494576040519150601f19603f3d011682016040523d82523d6000602084013e610499565b606091505b50509050806103745760405162461bcd60e51b81526020600482015260146024820152732330b4b632b2103a379039b2b7321022ba3432b960611b60448201526064015b60405180910390fd5b6104ee610915565b336000908152600860205260409020805460ff1661054e5760405162461bcd60e51b815260206004820152601a60248201527f4e6f6e2072656769737465726564207061727469636970616e7400000000000060448201526064016104dd565b600654600480546040516370a0823160e01b81523092810192909252600092916001600160a01b03909116906370a0823190602401602060405180830381865afa1580156105a0573d6000803e3d6000fd5b505050506040513d601f19601f820116820180604052508101906105c49190610c17565b6105ce9190610bca565b905060006105dc838361093d565b905080156106e35780600660008282546105f69190610bca565b9091555050336000908152600860205260408120600201805483929061061d908490610bca565b90915550506004546001600160a01b031663a9059cbb336040516001600160e01b031960e084901b1681526001600160a01b039091166004820152602481018490526044016020604051808303816000875af1158015610681573d6000803e3d6000fd5b505050506040513d601f19601f820116820180604052508101906106a59190610b92565b6106e35760405162461bcd60e51b815260206004820152600f60248201526e151c985b9cd9995c8819985a5b1959608a1b60448201526064016104dd565b5050506106f06001600255565b565b6106fa610997565b6001600160a01b03166000908152600160205260409020805460ff19169055565b610723610997565b6001600160a01b03166000908152600160208190526040909120805460ff19169091179055565b610752610997565b6106f060006109c4565b610764610915565b600754604051630b9ab49b60e41b81526001600160a01b039091169063b9ab49b09061079a908790879087908790600401610c30565b602060405180830381865afa1580156107b7573d6000803e3d6000fd5b505050506040513d601f19601f820116820180604052508101906107db9190610b92565b61081e5760405162461bcd60e51b81526020600482015260146024820152732737b7103bb434ba32b634b9ba32b2103ab9b2b960611b60448201526064016104dd565b604080516060810182526001808252602080830187815260008486018181526001600160a01b038b1682526008909352949094209251835460ff191690151517835592518282015591516002918201555550505050565b3360009081526001602052604090205460ff16806108ac5750336108a16000546001600160a01b031690565b6001600160a01b0316145b6108b557600080fd5b600480546001600160a01b0319166001600160a01b0392909216919091179055565b6108df610997565b6001600160a01b03811661090957604051631e4fbdf760e01b8152600060048201526024016104dd565b610912816109c4565b50565b600280540361093757604051633ee5aeb560e01b815260040160405180910390fd5b60028055565b6000806005548360646109509190610c78565b61095a9190610c8f565b9050600060648286600101546109709190610c78565b61097a9190610c8f565b905084600201548161098c9190610cb1565b925050505b92915050565b6000546001600160a01b031633146106f05760405163118cdaa760e01b81523360048201526024016104dd565b600080546001600160a01b038381166001600160a01b0319831681178455604051919092169283917f8be0079c531659141344cd1fd0a4f28419497f9722a3daafe3b4186f6b6457e09190a35050565b6001600160a01b038116811461091257600080fd5b600080600060608486031215610a3e57600080fd5b8335610a4981610a14565b92506020840135610a5981610a14565b929592945050506040919091013590565b60006020808352835180602085015260005b81811015610a9857858101830151858201604001528201610a7c565b506000604082860101526040601f19601f8301168501019250505092915050565b600060208284031215610acb57600080fd5b8135610ad681610a14565b9392505050565b60008060408385031215610af057600080fd5b8235610afb81610a14565b946020939093013593505050565b60008060008060608587031215610b1f57600080fd5b8435610b2a81610a14565b935060208501359250604085013567ffffffffffffffff80821115610b4e57600080fd5b818701915087601f830112610b6257600080fd5b813581811115610b7157600080fd5b886020828501011115610b8357600080fd5b95989497505060200194505050565b600060208284031215610ba457600080fd5b81518015158114610ad657600080fd5b634e487b7160e01b600052601160045260246000fd5b8082018082111561099157610991610bb4565b600181811c90821680610bf157607f821691505b602082108103610c1157634e487b7160e01b600052602260045260246000fd5b50919050565b600060208284031215610c2957600080fd5b5051919050565b6001600160a01b0385168152602081018490526060604082018190528101829052818360808301376000818301608090810191909152601f909201601f191601019392505050565b808202811582820484141761099157610991610bb4565b600082610cac57634e487b7160e01b600052601260045260246000fd5b500490565b8181038181111561099157610991610bb456fea26469706673582212200f885988673040cba2903f2574a1559f01403c7efe63ee289d6e136e2b70bf6f64736f6c63430008170033a2646970667358221220765b4fa6002c0b498a968bfe2e86b115ed6d7c68d8dc02a3cc22110f457e5c7a64736f6c63430008170033",
  "linkReferences": {},
  "deployedLinkReferences": {}
}